:100000000C9461040C9473040C9473040C942A06ED
:100010000C943F1D0C9473040C943E080C947304D0
:100020000C9473040C9473040C9473040C9478274C
:100030000C9473040C9473040C9473040C94730464
:100040000C94F1260C9473040C94C72B0C94252C5F
:100050000C9473040C9473040C9473040C94730444
:100060000C9473040C947304A932AF32B232B532DB
:10007000BA32C232CA323D333D333D33D232D53249
:10008000DE32E7323D333D333D333D333D333D33A7
:10009000EF32F93205330F3312331B3324332A3353
:1000A0001A0BA913A913A913A913250BA913A91393
:1000B0002F0B3C0B490B560BA9135A0BA913680BBA
:1000C000A913720B7C0BA70BA913A913A913860BF9
:1000D000910B9C0B77128812A7128812AB12BE12DA
:1000E000B112B712D412DA12E912FC1215131F134F
:1000F0002A1334137C2C7F2C842C872C8A2C8D2C57
:10010000902C932C962C992C9C2CA82CA82CA82CA9
:10011000A82CA82CA82CA82CA82CA22C9F2CA52C51
:10012000084AD73B3BCE016E84BCBFFDC12F3D6C5E
:1001300074319ABD56833DDA3D00C77F11BED9E4C4
:10014000BB4C3E916BAAAABE000000803F05A84CA4
:10015000CDB2D44EB93836A9020C50B99186880870
:100160003CA6AAAA2ABE000000803F000D0A4772E2
:10017000626C20302E392055505F355F41786973AD
:100180005F33304B5B582C592C5A2C412F425D5118
:10019000513A34373139333035312F333234353801
:1001A00034393039205B27242720666F7220686538
:1001B0006C705D0D0A000D0A003D00244E005D0DBF
:1001C0000A005B302E392055505F355F41786973E6
:1001D0005F33304B5B582C592C5A2C412F425D51C8
:1001E000513A34373139333035312F3332343538B1
:1001F000343930392E32303136313230312F63617B
:100200006C6C3A31383635333336313338352F313B
:10021000333330353333363138353A005D0D0A002B
:100220005B544C4F3A005D0D0A002C005B4739329D
:100230003A005D0D0A002C003A00333000323800DD
:100240005B47005D0D0A00204600205400204D3819
:1002500000204D3900204D3500204D3400204D3315
:1002600000204D3200204D3100204D300020473914
:1002700034002047393300204739310020473930D6
:10028000002047323000204732310020473139000A
:1002900020473138002047313700204700473338A6
:1002A0002E004738300047330047320047310047BF
:1002B00030005B002424202876696577204772622D
:1002C0006C2073657474696E6773290D0A2423208A
:1002D0002876696577202320706172616D65746589
:1002E0007273290D0A24472028766965772070618A
:1002F00072736572207374617465290D0A24492034
:100300002876696577206275696C6420696E666F0E
:10031000290D0A244E20287669657720737461724E
:1003200074757020626C6F636B73290D0A24783DBD
:1003300076616C7565202873617665204772626C02
:100340002073657474696E67290D0A244E783D6CBC
:10035000696E6520287361766520737461727475A7
:100360007020626C6F636B290D0A24432028636838
:1003700065636B2067636F6465206D6F6465290D2D
:100380000A245820286B696C6C20616C61726D20A6
:100390006C6F636B290D0A2448202872756E2068E3
:1003A0006F6D696E67206379636C65290D0A7E2025
:1003B000286379636C65207374617274290D0A2156
:1003C00020286665656420686F6C64290D0A3F20EB
:1003D0002863757272656E74207374617475732905
:1003E0000D0A6374726C2D78202872657365742011
:1003F0004772626C290D0A006F6B0D0A005D0D0AD1
:1004000000526573746F72696E672064656661750A
:100410006C74730050676D20456E640043686563BB
:100420006B20446F6F720044697361626C65640095
:10043000456E61626C65640043617574696F6E3A04
:1004400020556E6C6F636B656400272448277C27FA
:1004500024582720746F20756E6C6F636B00526593
:1004600073657420746F20636F6E74696E756500B8
:100470005B000D0A00486F6D696E67206661696CEC
:100480000050726F6265206661696C0041626F7234
:100490007420647572696E67206379636C650053BC
:1004A0006F6674206C696D69740048617264206CB9
:1004B000696D697400414C41524D3A20003E0D0A6D
:1004C000002C43746C3A002C4C696D3A002C525845
:1004D0003A002C4275663A002C002C57506F733A44
:1004E000002C002C4D506F733A003C446F6F72002B
:1004F0003C436865636B003C416C61726D003C4835
:100500006F6D65003C486F6C64003C52756E003C3A
:1005100049646C6500290D0A00206D6178207472B1
:100520006176656C2C206D6D0020616363656C2CB9
:10053000206D6D2F7365635E3200206D61782072CF
:100540006174652C206D6D2F6D696E002C207374A5
:1005500065702F6D6D0041007A00790078002028C9
:10056000003D0024002028686F6D696E672070755B
:100570006C6C2D6F66662C206D6D290D0A0020288D
:10058000686F6D696E67206465626F756E63652C58
:10059000206D736563290D0A2432373D00202868D9
:1005A0006F6D696E67207365656B2C206D6D2F6DA7
:1005B000696E290D0A2432363D002028686F6D6966
:1005C0006E6720666565642C206D6D2F6D696E29E0
:1005D0000D0A2432353D00290D0A2432343D002015
:1005E00028686F6D696E672064697220696E766530
:1005F0007274206D61736B3A002028686F6D696EAC
:1006000067206379636C652C20626F6F6C290D0A1B
:100610002432333D00202868617264206C696D6962
:1006200074732C20626F6F6C290D0A2432323D00E6
:100630002028736F6674206C696D6974732C206256
:100640006F6F6C290D0A2432313D002028726570CD
:100650006F727420696E636865732C20626F6F6CB3
:10066000290D0A2432303D00202861726320746F06
:100670006C6572616E63652C206D6D290D0A2431E5
:10068000333D0020286A756E6374696F6E2064655F
:1006900076696174696F6E2C206D6D290D0A2431A5
:1006A000323D00290D0A2431313D00202873746148
:1006B000747573207265706F7274206D61736B3A1C
:1006C00000202870726F62652070696E20696E76F6
:1006D0006572742C20626F6F6C290D0A2431303DD5
:1006E0000020286C696D69742070696E7320696ED2
:1006F000766572742C20626F6F6C290D0A24363D6A
:100700000020287374657020656E61626C652069D5
:100710006E766572742C20626F6F6C290D0A243519
:100720003D00290D0A24343D0020286469722070A0
:100730006F727420696E76657274206D61736B3AA6
:1007400000290D0A24333D00202873746570207041
:100750006F727420696E76657274206D61736B3A86
:10076000002028737465702069646C652064656C72
:1007700061792C206D736563290D0A24323D0020B8
:1007800028737465702070756C73652C20757365A3
:1007900063290D0A24313D0024303D005D0D0A001F
:1007A0003A002C005B5052423A000D0A00496E7626
:1007B000616C69642067636F64652049443A005541
:1007C0006E646566696E6564206665656420726145
:1007D000746500556E737570706F72746564206314
:1007E0006F6D6D616E64004D6F64616C2067726F38
:1007F00075702076696F6C6174696F6E004C696EFC
:1008000065206F766572666C6F7700486F6D696EF4
:1008100067206E6F7420656E61626C656400416C68
:1008200061726D206C6F636B004E6F742069646C35
:100830006500454550524F4D2072656164206661E8
:10084000696C2E205573696E672064656661756CEE
:1008500074730056616C7565203C20332075736598
:10086000630053657474696E672064697361626CB8
:1008700065640056616C7565203C203000496E76D9
:10088000616C69642073746174656D656E74004297
:100890006164206E756D62657220666F726D617441
:1008A00000457870656374656420636F6D6D616E7B
:1008B00064206C6574746572006572726F723A20A0
:1008C000000011241FBECFEFD8E0DEBFCDBF26E071
:1008D000A0E0B1E001C01D92AE3DB207E1F70E9479
:1008E000532E0C94EE3B0C940000EBE6F0E080817C
:1008F000817F8083E8E6F0E080818E7F80830895A9
:1009000084B1817F84B985B18E6085B98091660696
:1009100083FF0BC080916B008E6080936B00809191
:10092000680081608093680002C00E94750484B7EB
:10093000877F84BF8091600088618093600081E040
:10094000809360000895F999FECF92BD81BD81E04A
:100950008FBB80B508952F923F924F925F926F9216
:100960007F928F929F92AF92BF92CF92DF92EF923F
:10097000FF920F931F93CF93DF93C0914C04C1114B
:1009800001C0CFE0C150D091A701CD1709F41BC120
:10099000EC2EF12C2DE2C29F8001112408551E4F30
:1009A000F801A18CB28CC38CD48C65A176A187A1EF
:1009B00090A59B01AC010E948E37F80121A532A5BC
:1009C00043A554A50E94E53A4B018C019B01AC0163
:1009D000B501C6010E94833887FD02C05401680139
:1009E0008DE28E9DF0018F9DF00D1124E855FE4F94
:1009F000C501D601858B968BA78BB08FC11101C025
:100A0000CFE0C150CD1761F02DE22E9DC0012F9D8A
:100A1000900D11249C0128553E4F7901DDE233C031
:100A200080914B04D8135EC00E94781D5BC0AC2E31
:100A3000B12CDA9DC001DB9D900D1124FC01E8551D
:100A4000FE4F6F01C11101C0CFE0C15080914B0436
:100A5000C81302C00E94781DDA9D8001DB9D100D35
:100A6000112408551E4FF801818C928CA38CB48CF4
:100A7000A5019401658976898789908D0E948338C4
:100A8000811106C076018091A701C813D0CF2AC07A
:100A9000F80165A176A187A190A59B01AC010E94F8
:100AA0008E37F80121A532A543A554A50E94E53A49
:100AB000F701258936894789508D0E948E372B0191
:100AC0003C01A50194010E948338F80187FF05C00D
:100AD000458A568A678A708ED5CF858A968AA78A74
:100AE000B08ED0CFD091A701FDE2DF9F800111240D
:100AF00008551E4FC1E0CD0FCF3009F4C0E0209063
:100B00004C048DE2382EC21509F45BC0CC2ED12CDA
:100B10003C9CC0013D9C900D11249C0128553E4FEA
:100B20007901F801458856886788708CF9018588B5
:100B30009688A788B08CA5019401C301B2010E94D8
:100B4000833887FF24C0F80165A176A187A190A50D
:100B50009B01AC010E948E37F80121A532A543A567
:100B600054A50E94E53A9B01AC01C301B2010E9469
:100B70008E372B013C01A50194010E94833887FF29
:100B800006C0F701458A568A678A708EDC2F3C9C26
:100B9000F0013D9CF00D1124E855FE4F218D328D62
:100BA000438D548D658976898789908D0E9483381D
:100BB000811101C0DC2FCF5FCF3009F4C0E0870185
:100BC000A2CFD093A701DF91CF911F910F91FF90FA
:100BD000EF90DF90CF90BF90AF909F908F907F90DD
:100BE0006F905F904F903F902F900895009741F045
:100BF000EFE9FFE03197F1F700C000000197F6CF71
:100C000008958091170684FD24C09FB7F8948091C1
:100C100017068061809317069FBF0E94552A809116
:100C2000BA06982F9C7021F49091BB06913089F4FC
:100C30009FB7843029F4F8948091B806806204C08C
:100C4000F8948091B80688608093B8069FBF0C9492
:100C50000E2708951F920F920FB60F9211248F93B3
:100C60008091600086FD05C0809160008064809363
:100C700060008F910F900FBE0F901F90189593B149
:100C80009E708091660686FD02C08EE098279923AB
:100C900049F091FB882780F992FD8260987019F0E5
:100CA0008460089580E008952F923F924F925F9262
:100CB0006F927F928F929F92AF92BF92CF92DF926C
:100CC000EF92FF920F931F93CF93DF93CDB7DEB7D1
:100CD000A0970FB6F894DEBF0FBECDBF9091B906B6
:100CE0009111B3C1782E99E4A92E96E0B92E9E01F8
:100CF0002F5E3F4F490100E010E0C12CD12C76015E
:100D0000482F50E0588F4F8B902F0115110521F07F
:100D1000013021F080E103C084E001C088E0D4010B
:100D20008D934D01EF89F88D02C0F595E7959A9561
:100D3000E2F7E0FF17C020E030E040EC5FEBD501C8
:100D40006D917D918D919C910E94E53A1B012C0142
:100D50009B01AC01C701B6010E94A53A181614F018
:100D6000610172010F5F1F4FB4E0AB0EB11C033085
:100D7000110551F680906C0690906D06A0906E065D
:100D8000B0906F0604E011E0662463946CEB76E0AB
:100D9000CE0101960E94F71C80916706E82FF0E0D3
:100DA000FA8FE98FFE01319629EB36E03E8B2D8BD1
:100DB00038A32F8F20E030E060E090E0160127019B
:100DC00057FA509457F850944F89588D022E02C00C
:100DD000559547950A94E2F740FF2AC06F5FAF8DA3
:100DE000B8A113961D921D921D921C921697498DC3
:100DF0005A8D022E02C0559547950A94E2F740FF9E
:100E000003C0112319F007C0112329F0C082D18239
:100E1000E282F38204C0208231824282538241E125
:100E200050E04C0F5D1F420F531FDA018C91982B3D
:100E30002F5F3F4F34964F8D58A14C5F5F4F58A3A3
:100E40004F8F2330310509F0BFCFF92E70E080E0DD
:100E500090E00E9435390E94843B9B01AC01C501A2
:100E6000B4010E94E53AAB01BC01F092DD064B8F64
:100E70005C8F6D8F7E8F0E94561920E04B8D5C8DAC
:100E80006D8D7E8DCE0101960E9483190E949A1D60
:100E90000E94352A1123E9F00E943F06FE01719657
:100EA00020E030E090E06191462F4F2159F0AC01F5
:100EB000022E02C0559547950A94E2F740FF02C002
:100EC0006095F6222F5F3F4F2330310561F7F09296
:100ED000DD060E949A1D809117068473C1F08091EF
:100EE0001706807329F00E9401060E94F616ADC015
:100EF0001111A6C00E943F068721A9F79FB7F89459
:100F0000809117068B7F809317069FBF04C08F2D9B
:100F10008D7109F0BFCF0E9439270E94E61C809195
:100F20007006909171060E94F6051625C9F020E022
:100F300030E040EA50E4609172067091730680914F
:100F40007406909175060E94E53A6B017C018090D1
:100F5000680690906906A0906A06B0906B0610C073
:100F6000C0907206D0907306E0907406F0907506FB
:100F700080906C0690906D06A0906E06B0906F0603
:100F8000015009F003CFC0906706D12C8090720603
:100F900090907306A0907406B090750624013501F8
:100FA00077FA709477F8709489E1E82E86E0F82E4D
:100FB00000E010E08F89988D002E02C095958795EE
:100FC0000A94E2F780FF2AC0C601002E02C0959560
:100FD00087950A94E2F7D70180FF10C0D0962D9133
:100FE0003D914D915C91D397C501B4010E948E371C
:100FF000F701208131814281538106C02D913D91BD
:101000004D915C91C301B2010E94E53A0E94B23A4F
:10101000ED89FE8963837483858396830F5F1F4FF9
:101020002D893E892C5F3F4F3E8B2D8B34E0E30EA4
:10103000F11C0330110509F0BDCF0E94561905C0FF
:101040008091170682FF5ACF4ECFA0960FB6F89424
:10105000DEBF0FBECDBFDF91CF911F910F91FF90EB
:10106000EF90DF90CF90BF90AF909F908F907F9048
:101070006F905F904F903F902F9008951F920F9226
:101080000FB60F9211242F933F934F935F936F935B
:101090007F938F939F93AF93BF93EF93FF93809131
:1010A00060008F7B809360008091BA06813091F060
:1010B0008091B80681110EC00E943F06882351F02E
:1010C0000E9401069FB7F8948091B80683608093D0
:1010D000B8069FBFFF91EF91BF91AF919F918F9104
:1010E0007F916F915F914F913F912F910F900FBE24
:1010F0000F901F9018958F929F92AF92BF92CF92B0
:10110000DF92EF92FF920F931F93CF934B017A01DF
:101110006C01C40ED51E8C01C0E05B01A81AB90A8F
:10112000C501800F911F0C151D0599F00E94A304A5
:10113000C11108C02C2FCC0F330B232F221F2227C5
:10114000221F01C021E0C22FC80FF80181938F0137
:10115000E7CFC4018E0D9F1D0E94A30421E030E063
:10116000C81711F020E030E0C901CF911F910F9115
:10117000FF90EF90DF90CF90BF90AF909F908F90B7
:101180000895F894F999FECF92BD81BD81E08FBB9F
:1011900080B58627482F082E000C550B262F30E0EF
:1011A00024233523232B39F06F3F19F060BD84E0F1
:1011B00006C084E104C0882321F060BD84E28FBBB7
:1011C000F99A789408958F929F92AF92BF92CF929E
:1011D000DF92EF92FF920F931F93CF937C014A010E
:1011E0006B01C40ED51E8B01C0E05C01A61AB70AC4
:1011F000C8018A0D9B1D0C151D0599F0C11108C071
:101200002C2FCC0F330B232F221F2227221F01C08C
:1012100021E0F80161918F01C22FC60F0E94C10821
:10122000E7CF6C2FC701880D991DCF911F910F91AA
:10123000FF90EF90DF90CF90BF90AF909F908F90F6
:101240000C94C1082F923F924F925F926F927F92BF
:101250008F929F92AF92BF92CF92DF92EF92FF92C6
:101260000F931F93CF93DF93CDB7DEB7EA970FB6F7
:10127000F894DEBF0FBECDBF81E4E7E7F6E0DF0103
:101280001D928A95E9F78AE0ECECF5E0A8E7B6E074
:1012900001900D928A95E1F71DA2212C312CE12CB1
:1012A000F12C1FA210E01EA266246394712C552419
:1012B0005394B6E04B2E8DA1E82FF0E0E458FA4F9E
:1012C000C080CC2009F466C29FEB9C0D9A3110F0CF
:1012D0000C949B138F5F8DA3BE016F5D7F4FCE017A
:1012E00085960E94062D882311F40C949D1389A0E5
:1012F0009AA0ABA0BCA0C501B4010E94C83B0E944B
:101300000639062F70E080E090E00E9437399B019B
:10131000AC01C501B4010E948D3720E030E048ECFB
:1013200052E40E94E53A0E94523B0E940639B7E41B
:10133000CB1629F0EDE4CE1609F436C16AC10832A5
:1013400009F408C1E8F4043160F4013108F0ADC0DB
:10135000043009F44CC008F463C00A30E1F10C9485
:10136000A9130C31C1F128F4063108F4CDC00C9456
:10137000A9130E3181F1063209F452C00C94A9135D
:101380000D3309F4E1C0B0F4053309F445C040F46D
:101390000B3209F4C2C0013309F4BFC00C94A91385
:1013A0000C3310F00C94A9138AEC800F80937E0606
:1013B00089E0D3C00C3540F40A3508F085C000350B
:1013C00009F46FC00C94A9130C3529F00F3508F4FB
:1013D00092C00C94A9136115710511F00C94B91306
:1013E000FEA1FF2311F40C94C8130C949F13509288
:1013F00077060AC00F3150F40A3009F0B2C021E07C
:101400002EA382E08093770680E0A7C0053311F019
:101410000C94DF13E1E0EEA3F7E0F0937706F4CF4E
:101420009EA191110C949F13A2E0AEA3023089F00B
:1014300028F4002359F0013081F08EC0063281F08B
:10144000003579F1033009F087C007C010927806A3
:1014500083C0BEA1B09378067FC0009378067CC09D
:101460006E317105B1F048F46431710511F00C94DE
:10147000A913E4E0E093780612C06832710569F0C0
:101480006233710511F00C94A91327E020937806BC
:1014900006C0F5E0F093780602C04092780681E03D
:1014A00074C038E03093780657C0023129F0033118
:1014B00039F010927C0602C050927C0682E04DC04A
:1014C00082E080937C0649C06115710549F40A35B4
:1014D00019F410927B0602C050927B0683E055C03F
:1014E0006A30710511F00C94A9130A3511F40C94AB
:1014F000A91384E04AC00D3519F45092790602C050
:101500001092790685E029C0043119F450927A06C8
:1015100002C010927A0686E020C08EA181110C9440
:101520009F13013331F410927D0688E093E09EA36F
:101530002CC06A30710511F00C94A91350927D06ED
:1015400088E0A3E0AEA321C0672B11F00C94A9138F
:101550008AE01BC087E001C081E0672BB1F00C94EA
:10156000C4130C3111F00C94EF1331E03EA361155C
:10157000710511F40C94DD136A30710511F00C94AF
:10158000A91394E09093770680E0F30102C0EE0F78
:10159000FF1F8A95E2F7CF019F012E213F21232BC8
:1015A000A9F185E10C940314672B11F00C94C4137A
:1015B000063018F4033028F011C00E3159F00C94A5
:1015C000A913023039F00E3129F0011116C05092E2
:1015D0007F0613C082E080937F060FC0043029F09D
:1015E000053039F05092810606C082E08093810672
:1015F00002C0109281068CE001C08BE0930102C012
:10160000220F331F8A95E2F7C901C7CFE82AF92ACA
:1016100052CE8C2DCC0C990BAA0BBB0BFC01E154C8
:10162000F109EA31F10510F00C94A913E05BFF4FCA
:101630000C946D378092B4069092B506A092B606CF
:10164000B092B70618608DE083C0809282069092B7
:101650008306A0928406B092850680E079C08092CD
:10166000860690928706A0928806B09289063FA1CE
:1016700031603FA381E06CC080928A0690928B0615
:10168000A0928C06B0928D068FA182608FA382E01B
:101690005FC080928E0690928F06A0929006B092C4
:1016A00091069FA194609FA383E052C00093960689
:1016B00084E04EC0C501B4010E94FF3860939706D4
:1016C000709398068093990690939A0685E040C09F
:1016D00080929B0690929C06A0929D06B0929E06D8
:1016E00086E036C080929F069092A006A092A10646
:1016F000B092A20687E02CC08092A3069092A40626
:10170000A092A506B092A60688E022C08092A80604
:101710009092A906A092AA06B092AB0611608AE048
:1017200017C08092AC069092AD06A092AE06B09221
:10173000AF0612608BE00CC08092B0069092B106AA
:10174000A092B206B092B30614608CE001C089E0AA
:101750006301082E02C0CC0CDD1C0A94E2F796014E
:1017600022213321232B09F0ECC7A1E6B3E002C00C
:10177000B595A7958A95E2F7A0FF09C020E030E073
:10178000A901C501B4010E94833887FDDCC72C285C
:101790003D2891CD112329F0BEA1B11102C0E2E094
:1017A000EEA325FE0EC08091970690919806A09119
:1017B0009906B0919A0680389649A849B1050CF06F
:1017C000C4C780917906813031F42EA12230A1F571
:1017D00020FEC5C731C08091CD0581112DC020FEEE
:1017E0001BC080917A06813039F523E333E34BEC5B
:1017F00051E46091820670918306809184069091F5
:1018000085060E94E53A6093820670938306809372
:1018100084069093850610C08091DA059091DB05CF
:10182000A091DC05B091DD0580938206909383063C
:10183000A0938406B093850630FC10C08091D60535
:101840009091D705A091D805B091D9058093A306B2
:101850009093A406A093A506B093A6068091770660
:10186000813031F426FC02C08CE1CDC7E89426F823
:1018700080917C06882371F0813031F431E038ABFF
:101880001FA682E08EA70BC018AA92E09FA7A1E036
:10189000AEA705C0B2E0B8ABE1E0EFA71EA680910D
:1018A0007A06813021F0FEA1F330A1F52CC0F8EAD0
:1018B000AF2EF6E0BF2EC12CD12C812E912CC4016D
:1018C0000C2C02C0959587950A94E2F780FF10C012
:1018D00023E333E34BEC51E4D5016D917D918D9180
:1018E0009C910E94E53AF501608371838283938322
:1018F000FFEFCF1ADF0A24E0A20EB11C34E0C316BA
:10190000D104E9F6D0CF80917D06813019F41430EE
:1019100009F01DC780E1E3EFF5E0DE01519601908B
:101920000D928A95E1F7F1FC08C00091770602302C
:10193000B9F0083009F4B0C013C180917E06873039
:1019400010F08DE160C79091D205981771F3BE0138
:101950006F5E7F4F0E946D2A882309F408C7E5CF88
:10196000111102C08AE14FC7C10180759927892BE7
:1019700009F47ACF60919B0670919C0680919D0638
:1019800090919E060E94C83B0E9406396730C8F6B7
:1019900080919606843129F0823009F0DAC627FC5E
:1019A000D8C68FEA2822662319F061506BA703C0BE
:1019B00090917E069BA7BE016F5F7F4F8BA50E9413
:1019C0006D2A882309F4D3C6009196064090130629
:1019D000509014066090150670901606DE01119660
:1019E0007D01A12CB12CC12CD12C812E912CC401B4
:1019F0000C2C02C0959587950A94E2F780FF3DC0B4
:101A0000F501E958F94FFDA7ECA7043159F5F501A7
:101A1000E453FA4F27A930AD41AD52AD6789708DBF
:101A2000818D928D0E948D37ACA5BDA5D1962D914B
:101A30003D914D915C91D4970E948D37F701608361
:101A4000718382839383F2E0CF16D104B1F4A301B2
:101A500092010E948D37D7016D937D938D939C9356
:101A600013970BC0ECA5FDA581A992A9A3A9B4A9C0
:101A7000F70180839183A283B383FFEFCF1ADF0A3C
:101A800024E0A20EB11C34E0E30EF11C84E0C81681
:101A9000D10409F0ACCF17C1112309F463CF4090F2
:101AA0001306509014066090150670901606E8EA2A
:101AB000EE2EE6E0FE2EA12CB12CC12CD12C812ED5
:101AC000912CF501E453FA4FC4010C2C02C09595FA
:101AD00087950A94E2F780FF2BC0A1E1B0E0AC0F3C
:101AE000BD1FAA0DBB1D2D913D914D915C91678944
:101AF000708D818D928D0E948D37D7012D913D91F2
:101B00004D915C910E948D37F701608371838283D0
:101B10009383F2E0CF16D104A1F4A30192010E94B5
:101B20008D37D7016D937D938D939C93139709C047
:101B300087A990ADA1ADB2ADF70180839183A28357
:101B4000B383FFEFCF1ADF0A24E0A20EB11C34E00A
:101B5000E30EF11C84E0C816D10409F0B2CFB2C084
:101B60009EA1933051F4053009F495C0073009F473
:101B7000A4C0033009F0A6C086C0112309F498C0A0
:101B8000A0917B06ABA7409013065090140660907E
:101B90001506709016066CECA62E65E0B62E78EA57
:101BA000E72E76E0F72E4E01B1E18B0E911CC12C91
:101BB000D12CE12FF0E0FDA7ECA78CA59DA50C2C66
:101BC00002C0959587950A94E2F780FD0BC0F50158
:101BD0008789908DA18DB28DF70180839183A28337
:101BE000B3833FC00730E9F1FBA5F11129C0D5014E
:101BF000D7962D913D914D915C91DA97F4016081DA
:101C00007181828193810E948E37D7012D913D9100
:101C10004D915C910E948E37F701608371838283BE
:101C20009383F2E0CF16D104E1F4A30192010E9464
:101C30008E37D7016D937D938D939C93139711C02D
:101C4000F5012789308D418D528DD7016D917D91A0
:101C50008D919C910E948E37F701608371838283FE
:101C60009383FFEFCF1ADF0A24E0A20EB11C34E009
:101C7000E30EF11C84E0880E911C94E0C916D10497
:101C800009F09BCF70CF111101C01EA2BE016F5F82
:101C90007F4F86E007C0111101C01EA2BE016F5F19
:101CA0007F4F87E00E946D2A882309F460C50AC02F
:101CB000053099F3073009F0A2C58091780682308B
:101CC00008F049C51BA600917806083041F411239D
:101CD00009F402C2AEA1A13009F03FC5E1C2BEA124
:101CE000B23009F0F9C10023D9F020E030E0A901B9
:101CF000609182067091830680918406909185069A
:101D00000E948338882309F42AC5043028F402305D
:101D100058F4013029F0C4C2083008F488C1C0C2A8
:101D2000112309F4DCC1BCC2112309F41BCEFEA5AA
:101D3000EF2FF0E0FDA7ECA73FA5232F30E03AAB53
:101D400029AB81E090E07C010FA402C0EE0CFF1CE7
:101D50000A94E2F70EA402C0880F991F0A94E2F7D2
:101D6000E82AF92A812F90E08E219F21892B09F4FE
:101D7000F8C4CF01880F991F880F991FFC01E958FB
:101D8000F94FDC01A453BA4F57962D913D914D91D7
:101D90005C915A9761A972A983A994A90E948D3771
:101DA0002B013C0189A99AA9880F991F880F991FB7
:101DB000FC01E958F94FDC01A453BA4F57962D9115
:101DC0003D914D915C915A9761A972A983A994A9FB
:101DD0000E948D374B015C01610180E8C822DD243F
:101DE00027FE54C0E89427F82091A8063091A90650
:101DF0004091AA065091AB066091E3057091E4050D
:101E00008091E5059091E6050E94833881116CC1AF
:101E10002091AC063091AD064091AE065091AF06D0
:101E20006091E7057091E8058091E9059091EA05D8
:101E30000E948338811158C12091B0063091B106BB
:101E40004091B2065091B3066091EB057091EC059C
:101E50008091ED059091EE050E948338811144C177
:101E60002091B4063091B5064091B6065091B70660
:101E70006091EF057091F0058091F1059091F20568
:101E80000E948338811130C181E2BDC43FA1232F5C
:101E900030E038A72FA3E222F322EF2809F463C42D
:101EA00081EF282280917A06813009F47BC0ECA56D
:101EB000FDA5EE0FFF1FEE0FFF1FE558F94FC3847E
:101EC000D484E584F684A7019601C301B2010E947F
:101ED0008D372B013C01E9A9FAA9EE0FFF1FEE0F88
:101EE000FF1FE558F94F83859485A585B6858FA397
:101EF00098A7A9A7BAA79C01AD01C501B4010E948A
:101F00008D374B015C01A3019201C301B2010E9414
:101F1000E53A2B013C01A5019401C501B4010E94E1
:101F2000E53A9B01AC01C301B2010E948E370E94C9
:101F3000843B4B015C01A7019601C701B6010E94D9
:101F4000E53A6B017C012FA138A549A55AA5CA0124
:101F5000B9010E94E53A9B01AC01C701B6010E949C
:101F60008E370E94843B6B017C0160939F067093C7
:101F7000A0068093A1069093A2069B01AC01C50127
:101F8000B4010E948D374B015C01E894B7F82AE058
:101F900037ED43EA5BE3C501B4010E94A53A181688
:101FA0004CF17EC107E716E08FA198A50C2C02C06A
:101FB000959587950A94E2F780FF12C023E333E3F7
:101FC0004BEC51E4D8011F966D917D918D919C91C0
:101FD00052970E94E53AF8016787708B818B928B4C
:101FE000FFEFCF1ADF0A0C5F1F4F24E0C216D104A7
:101FF000D9F65DCF20E030E040E05FE3C501B401F9
:102000000E94A53A18160CF43FCF2FE632E143E8C0
:102010005AE3C701B6010E94E53A9B01AC01C50134
:10202000B4010E94A53A18160CF42ECF39C1112321
:1020300009F498CC2091A8063091A9064091AA06EF
:102040005091AB066091E3057091E4058091E50540
:102050009091E6050E948338811122C12091AC063F
:102060003091AD064091AE065091AF066091E70504
:102070007091E8058091E9059091EA050E94833806
:1020800081110EC12091B0063091B1064091B20687
:102090005091B3066091EB057091EC058091ED05D0
:1020A0009091EE050E9483388111FAC02091B40608
:1020B0003091B5064091B6065091B7066091EF0594
:1020C0007091F0058091F1059091F2050E9483389E
:1020D000882309F4D9CEE4C03EA13111E1C0C10189
:1020E0008E7D9C7F1EA2DFC080917A068130B1F484
:1020F00023E333E34BEC51E460919F067091A0061B
:102100008091A1069091A2060E94E53A60939F06F5
:102110007093A0068093A1069093A20680919F06DB
:102120009091A006A091A106B091A2068FA398A7B6
:10213000A9A7BAA7A3019201C301B2010E94E53A7F
:102140006BAB7CAB8DAB9EABA5019401C501B4011B
:102150000E94E53A6FAB78AF89AF9AAF20E030E0EC
:1021600040E850E46FA178A589A59AA50E94E53AB8
:102170002FA138A549A55AA50E94E53A2BA93CA94B
:102180004DA95EA90E948D372FA938AD49AD5AAD32
:102190000E948D376B017C0120E030E0A9010E9494
:1021A000833887FDF3C2C701B6010E94843B6B01EF
:1021B0007C012FA938AD49AD5AAD6BA97CA98DA979
:1021C0009EA90E948E370E94843B9B01AC01C701EF
:1021D000B60190580E948D386B017C01033021F4C8
:1021E000F7FAF094F7F8F09420E030E0A9016FA13D
:1021F00078A589A59AA50E94833887FF11C0F7FAB0
:10220000F094F7F8F0948FA198A5A9A5BAA5B058B5
:1022100080939F069093A006A093A106B093A20678
:102220000CA51DA5000F111F000F111F0558194FF8
:10223000A7019601C501B4010E94E53A9B01AC01DA
:10224000C301B2010E948D3720E030E040E05FE33F
:102250000E94E53AD8011B966D937D938D939C93D4
:102260001E9709A91AA9000F111F000F111F055869
:10227000194FA7019601C301B2010E94E53A9B01E3
:10228000AC01C501B4010E948E3720E030E040E08F
:102290005FE30E94E53AF801638774878587968734
:1022A000C1018E7D907C892B09F05FC280919706D9
:1022B00090919806A0919906B0919A068093DF05B7
:1022C0009093E005A093E105B093E2058091790633
:1022D0008093CD058091820690918306A09184061B
:1022E000B09185068093DA059093DB05A093DC0519
:1022F000B093DD05C090A306D090A406E090A5069B
:10230000F090A606A70196016091D6057091D705B9
:102310008091D8059091D9050E9483388823C1F017
:102320008091D505882321F0B701A6010E94A6332C
:102330008091A3069091A406A091A506B091A6064F
:102340008093D6059093D705A093D805B093D9056F
:102350008091A7068093DE05809181069091D50536
:10236000981771F04091D6055091D7056091D80526
:102370007091D9050E94A633809181068093D5057E
:102380009091D40580918006981751F08091BA06FB
:10239000823011F00E948933809180068093D405A9
:1023A00080917706813069F080917C068093D0051A
:1023B00080917A068093CE058EA1833009F074C097
:1023C00054C080909B0690909C06A0909D06B09073
:1023D0009E068091BA06823039F320E030E040EA70
:1023E00051E4C501B4010E94E53A0E9472390E948D
:1023F00006396B017C010E94893320E030E04AE716
:1024000054E4C501B4010E94E53A4B015C0182E34A
:102410008C9DB0018D9D700D112480E090E00E9494
:1024200035399B01AC01C501B4010E948D370E9472
:1024300072390E940639CB010E94F605C114D104FD
:1024400009F4B2CF0E94F61691E0C91AD108809122
:10245000B9068111A9CFAFEFB0E7E2E0A150B040DB
:10246000E040E1F700C00000E9CF80917D06809355
:10247000D105813089F48091B0069091B106A09188
:10248000B206B091B3068093130690931406A093FE
:102490001506B093160608C0109213061092140683
:1024A000109215061092160680917E069091D20524
:1024B000981759F08093D20580E1FE017196A3EF41
:1024C000B5E001900D928A95E1F780917B068093AB
:1024D000CF05E09177068E2F90E0FC013297E8302F
:1024E000F10508F04BC0E659FF4F0C946D37BE0163
:1024F0006F5F7F4F8BA50E94642A8091D205FBA558
:102500008F133CC080E1FE013196A3EFB5E01AC005
:102510002EA1222349F020E040E050E060E87FEB6C
:1025200088EA96E00E94B72D20E040E050E060E8A5
:102530007FEBCE0101960E94B72D80E1FE0131961E
:10254000A3EEB5E001900D928A95E1F717C063EE16
:1025500075E086E003C063EE75E087E00E94642AC0
:102560000DC080E1E8EAF6E0A3E0B6E0EBCF80E161
:10257000E3E0F6E0DF011D928A95E9F7E091780645
:10258000E093CC05E83009F486C0BEA1B23009F072
:1025900082C08E2F90E08830910508F073C0FC0156
:1025A000EE58FF4F0C946D3720E040E050E060E8BB
:1025B0007FEB0AC04091DA055091DB056091DC05A4
:1025C0007091DD052091CD0588EA96E00E94B72D37
:1025D00059C02091DA053091DB054091DC0550911E
:1025E000DD0560919F067091A0068091A1069091F3
:1025F000A2068824839411C02091DA053091DB056E
:102600004091DC055091DD0560919F067091A00618
:102610008091A1069091A206812CA8A8CFA4EEA437
:102620000091CD050E9460342DC06091DA05709153
:10263000DB058091DC059091DD0500E009C060912B
:10264000DA057091DB058091DC059091DD0501E0F4
:1026500020E014C06091DA057091DB058091DC0503
:102660009091DD0500E009C06091DA057091DB050D
:102670008091DC059091DD0501E021E04091CD05E0
:102680000E94B63380E1E8EAF6E0A3EEB5E00190FF
:102690000D928A95E1F780917F068093D305882378
:1026A00009F4B1C00E9489339091D3058091BA0694
:1026B000913069F48230D9F19FB7F8948091170670
:1026C0008860809317069FBF0E94F61630C091E085
:1026D0009093CC051092D0051092CF051092CD05A5
:1026E0001092D2051092D5051092D405823099F03F
:1026F000BE016F5E7F4F80E00E946D2A8823B9F192
:1027000080E1FE017196A3EFB5E001900D928A95EC
:10271000E1F70E94552A80E794E00E94761584E153
:1027200094E00E9476158DEF93E00E94761510924A
:10273000D30580E068C081E066C082E064C088E1C3
:1027400062C089E160C084E05EC08BE15CC085E26C
:102750005AC084E158C08EE156C08FE154C086E172
:1027600052C080E250C083E24EC084E24CC087E099
:102770004AC00E3199F0E0F50A3011F40C94010AC8
:102780000C3111F40C94B70A87E13DC082E23BC0E2
:102790000E3111F00C94FA09A1E0AEA36115710598
:1027A00039F06A307105A9F6409277060C94C40A94
:1027B000B5E0B09377060C94C40A83E00CC00C35E6
:1027C00071F421E02EA36115710569F06A3071057D
:1027D00009F0BFCF89E0809377060C94C40AB1E07A
:1027E000BEA30C94C40A38E0309377060C94C40A54
:1027F000053311F40C940C0A0C3529F3C5CF0330C2
:1028000009F060CA42CAEA960FB6F894DEBF0FBE5E
:10281000CDBFDF91CF911F910F91FF90EF90DF908F
:10282000CF90BF90AF909F908F907F906F905F9070
:102830004F903F902F900895CF93DF93CCE7D5E052
:102840008991882319F00E944F2CFACFDF91CF9104
:102850000895CF93DF9321E5829FC0011124EC01FD
:10286000DD5F40E550E0BE018CE795E00E947B080B
:10287000892B59F410927C0540E550E06CE775E037
:10288000CE010E94E30880E001C081E0DF91CF919A
:102890000895CF93C0E08C2F0E942914811104C0A9
:1028A00087E00E946B2C0AC080917C05882331F060
:1028B0000E941C140E9422090E94EE16C13011F0E1
:1028C000C1E0E9CFCF910895EF92FF920F931F934C
:1028D000CF93DF931F92CDB7DEB7362FEDB6FEB69E
:1028E0006DB77EB7641B71090FB6F8947EBF0FBE3B
:1028F0006DBF0DB71EB70F5F1F4F202FF8019E2F22
:10290000921B941728F4632F0E943F379193F7CFBF
:10291000442361F0F801E40FF11D31978081805D5F
:1029200049830E944F2C49814150F2CF0FB6F89451
:10293000FEBE0FBEEDBE0F90DF91CF911F910F91A4
:10294000FF90EF90089548E062E00C9464149FB704
:10295000F894809117068260809317069FBF0895B0
:102960008F929F92AF92BF92CF92DF92EF92FF929F
:102970000F931F93CF93DF93CDB7DEB72A970FB690
:10298000F894DEBF0FBECDBF6B017C01042F20E0A9
:1029900030E0A9010E94833887FF07C08DE20E94C2
:1029A0004F2CF7FAF094F7F8F094102F123060F0F3
:1029B00020E030E048EC52E4C701B6010E94E53A5D
:1029C0006B017C011250F2CF00FF0AC020E030E022
:1029D00040E251E4C701B6010E94E53A6B017C0177
:1029E00020E030E040E05FE3C701B6010E948E378F
:1029F0000E94FF38E1E0F0E0EC0FFD1FE00FF11D59
:102A00002EE2208310E03AE0832E912CA12CB12CF1
:102A10006115710581059105A9F0101301C01F5FB3
:102A2000EE24E394F12CEC0EFD1EE10EF11CA50149
:102A300094010E944B37605DF7016083B901CA01C0
:102A40001F5FE6CF80E3101748F4E1E0F0E0EC0F01
:102A5000FD1FE10FF11D80831F5FF5CF10130BC029
:102A600012E0100F0F5FE1E0F0E0EC0FFD1FE00F50
:102A7000F11D80E38083112341F0FE01E10FF11D80
:102A800080810E944F2C1150F6CF2A960FB6F894F1
:102A9000DEBF0FBECDBFDF91CF911F910F91FF9091
:102AA000EF90DF90CF90BF90AF909F908F90089560
:102AB00043E00C94B0142091660620FF08C02BE878
:102AC00032E441E25DE30E94E53A44E001C043E0C4
:102AD0000C94B0148A3020F0843620F043E003C018
:102AE00041E001C042E06AE00C946414CF93DF93AC
:102AF000FC018491EF012196882321F00E944F2C44
:102B0000FE01F7CFDF91CF910895FF920F931F93AE
:102B1000CF93DF9388E997E00E947615809159065C
:102B20000E946A158FE797E00E94761580915C06F7
:102B30000E946A1581E697E00E94761580915A06F8
:102B40000E946A1588E497E00E94761580915A06E3
:102B50000E94A31481E497E00E94761580915B06A1
:102B60000E946A1589E297E00E94761580915B06C3
:102B70000E94A31482E297E00E9476158091660677
:102B800082FB882780F90E946A1581E097E00E9405
:102B900076158091660686FB882780F90E946A1563
:102BA00081EE96E00E94761580916606881F882740
:102BB000881F0E946A1581EC96E00E94761580912C
:102BC0005D060E946A158BEA96E00E947615809158
:102BD0005D060E94A31483EA96E00E947615609138
:102BE0005E0670915F0680916006909161060E947A
:102BF000581583E896E00E94761560916206709100
:102C0000630680916406909165060E94581588E6D7
:102C100096E00E9476158091660681700E946A1582
:102C20008BE496E00E9476158091660685FB8827E6
:102C300080F90E946A1580E396E00E9476158091E3
:102C4000660683FB882780F90E946A1585E196E075
:102C50000E94761580916606829581700E946A15A1
:102C600089EF95E00E947615809167060E946A15AB
:102C70008FED95E00E947615809167060E94A3145F
:102C800087ED95E00E94761560916806709169065F
:102C900080916A0690916B060E9458158AEB95E028
:102CA0000E94761560916C0670916D0680916E069B
:102CB00090916F060E9458158DE995E00E94761557
:102CC000809170060E946A158EE795E00E94761545
:102CD00060917206709173068091740690917506EA
:102CE0000E94581585E695E00E94761584E6F82E38
:102CF000C0E009E116E0D0E083E695E00E94761599
:102D00008D2F8F0D0E946A1581E695E00E94761541
:102D1000C23079F0F801C330C1F0C13029F06081D0
:102D200071818281938118C06089718982899389B8
:102D300013C020E030E041E655E4F80160A171A144
:102D400082A193A10E948D3807C080A991A9A2A950
:102D5000B3A9BC01CD0190580E9458158EE595E0AD
:102D60000E947615D23051F0D33059F0D13019F09D
:102D70008CE595E008C08AE595E005C088E595E01A
:102D800002C086E595E00E947615C23051F0C3304E
:102D900059F0C13019F08CE495E008C08AE395E061
:102DA00005C089E295E002C089E195E00E947615B0
:102DB00085E195E00E947615DF5F0C5F1F4FD430F0
:102DC00009F09ACFFAE0FF0ECF5F8CE8F81291CFAE
:102DD000DF91CF911F910F91FF900895811104C051
:102DE00088EF93E00C9476150C946B2C3F924F92E5
:102DF0005F926F927F928F929F92AF92BF92CF928B
:102E0000DF92EF92FF920F931F93CF93DF93CDB793
:102E1000DEB7A0970FB6F894DEBF0FBECDBFBB24C0
:102E2000B3949DE2A92E28E0722E30E2632E00E1D9
:102E300040E4542E52E0452E1091B806112309F4B7
:102E40005BC0B092BA0611FF07C085EB94E00E9408
:102E500076158AEA94E023C012FF07C085EB94E060
:102E60000E9476158FE994E01AC013FF07C085EB26
:102E700094E00E9476158CE894E011C014FF07C01E
:102E800085EB94E00E94761581E894E008C015FF78
:102E900010C085EB94E00E94761585E794E00E94CF
:102EA000761582E794E00E94761584EF91E00E9407
:102EB000F60510FD08C08FB7F8949091B8061092EF
:102EC000B8068FBF19C080E794E00E9476158EE5A2
:102ED00094E00E9476158DEF93E00E9476159FB7DF
:102EE000F894809117068F7E809317069FBF80917C
:102EF000170684FFFCCFDFCF10911706112309F4CA
:102F0000ACC114FF04C081E08093B906B7C110FFC3
:102F1000F7C0ECEBF6E0DE015196802F01900D92A8
:102F20008A95E1F78091BA068430E9F040F4813067
:102F3000E9F080F0823009F580EF94E01CC0803128
:102F400079F018F4883049F018C0803291F080345C
:102F500021F013C08FE095E00EC08AE095E00BC031
:102F600084E095E008C08EEF94E005C087EF94E020
:102F700002C08AEE94E00E94761580915D0683700F
:102F800039F0BE016F5E7F4FCE0101960E94F71CA3
:102F900080915D0680FD05C080915D0681FF6BC05C
:102FA0001CC083EE94E00E947615CE0101967C0150
:102FB000D12CF70161917191819191917F010E94D2
:102FC0005B15F3E0DF1621F081EE94E00E947615A8
:102FD000D39424E0D212EDCFDFCF8AED94E00E94AB
:102FE000761583EFC82E85E0D82ECE0101967C01A0
:102FF000312C4701F60161917191819191916F019D
:1030000024853585468557850E948E379B01AC0106
:10301000F70160817181828193810E948D37F70170
:103020006083718382839383F2E03F120FC020910B
:1030300013063091140640911506509116060E9411
:103040008D37F7016083718382839383F4E0EF0E01
:10305000F11CF40160817181828193810E945B1572
:10306000F3E03F1621F088ED94E00E94761533944A
:1030700024E03212BECF80915D0682FF0EC082ED49
:1030800094E00E94761580914C0490914B0489172E
:1030900008F4815F891B0E946A1580915D0683FF99
:1030A0000EC08DEC94E00E9476159091A501809160
:1030B000A601891708F48058891B0E946A1580911F
:1030C0005D0684FF0AC087EC94E00E9476150E949A
:1030D0003F0643E062E00E94641481EC94E00E94A9
:1030E000761586B10E94A3148DEB94E00E947615AC
:1030F0009FB7F894809117068E7F809317069FBF25
:10310000812F887609F444C08091BA06882349F05B
:10311000982F9C77A9F1883021F40E94781DB092F5
:10312000BB068091BA06811102C04092BB0616FF11
:1031300009C0883011F45092BA068091BB068860AD
:103140008093BB0613FF05C08091BA0685FF0093EC
:10315000BA0615FF15C080E794E00E9476158CE151
:1031600094E00E9476158DEF93E00E947615809191
:10317000BB0681FD146084608093BB066092BA0632
:103180009FB7F894809117068779809317069FBFA1
:1031900011FF46C0812F8876D9F58091BA06882321
:1031A00031F08075A9F18091BB0681FF31C080911B
:1031B000BB0682FF11C08091D505882329F0439872
:1031C00080EA9FE00E94F6058091D405882321F0D3
:1031D00088EE93E00E94F60580914B0490914C0498
:1031E000981791F0A89EC001112488559E4F892BF5
:1031F00059F08091BB0683FD07C07092BA060E9409
:103200009A1D0E94352A02C01092BA061092BB067F
:103210009FB7F894809117068D7F809317069FBF04
:1032200012FF1BC08091BA06807359F08091BB06D3
:1032300082FD0E94552A8091BB0682608093BB0666
:1032400004C01092BB061092BA069FB7F894809102
:1032500017068B7F809317069FBF8091BA068C77E5
:1032600011F00E949A1D9091BA068091BB0690328F
:1032700019F481FD0093BA068111DECDA0960FB638
:10328000F894DEBF0FBECDBFDF91CF911F910F919C
:10329000FF90EF90DF90CF90BF90AF909F908F9076
:1032A0007F906F905F904F903F900895E1E0F1E044
:1032B000A9EBB6E013964D915D916D917C911697B7
:1032C000408351836283738317964D915D916D9115
:1032D0007C911A9744835583668377831B964D911F
:1032E0005D916D917C911E974087518762877387AE
:1032F0001F968D919D910D90BC91A02D84879587EF
:10330000A687B78708952F923F924F925F926F9250
:103310007F928F929F92AF92BF92CF92DF92EF9265
:10332000FF920F931F93CF93DF93CDB7DEB7EA974A
:103330000FB6F894DEBF0FBECDBF49A35AA36BA34F
:103340007CA32AAF20914C0429AB422F50E05EA30E
:103350004DA33DE2239FF0011124E855FE4F118A51
:10336000128A138A148A11A612A613A614A6108212
:1033700049E956E766E97EE745A356A367A370A728
:1033800098A78FA349E156E05BAB4AABCE014196CB
:1033900098AB8FA721E031E03CA72BA7AE014F5F90
:1033A0005F4F5EA74DA789A95DE2859F300111247B
:1033B0002DA53EA53AA729A7412C512C10E01F01AD
:1033C000AF014F5E5F4F5FAB4EABCF01899699AFB8
:1033D00088AFEFA1F8A56191719181919191F8A7C2
:1033E000EFA3EAA9FBA981909190A190B190FBABCA
:1033F000EAABA50194010E94E53A0E94B23AEFA51A
:10340000F8A96193719381939193F8ABEFA7EBA522
:10341000FCA5C190D190E190F190FCA7EBA76C19AD
:103420007D098E099F096B017C0197FF07C0CC24A1
:10343000DD247601C61AD70AE80AF90AF201E60D78
:10344000F71DE855FE4FC182D282E382F482EEA9D5
:10345000FFA92081318142815381C216D306E4063F
:10346000F50610F469017A01EEA9FFA9C082D182A4
:10347000E282F3820E943739A50194010E948D38BF
:103480004B015C01E9A5FAA5619371938193919336
:10349000FAA7E9A720E030E0A9010E94833887FF5E
:1034A00011C0112331F0113031F0123031F082E0CF
:1034B00005C080E203C080E401C080E8F101908192
:1034C000892B80831330B1F0A5019401C501B401AB
:1034D0000E94E53A9B01AC01E8ADF9AD60817181D4
:1034E000828193810E948E37E8ADF9AD608371834C
:1034F000828393831F5FF4E04F0E511C20E142163C
:10350000510409F066CF8DE24DA15EA1849F800138
:10351000859F100D112408551E4FA5019401C5016A
:10352000B4010E94E53AF80121A532A543A554A5AE
:103530000E948E370E94843B4B015C01F80161A719
:1035400072A783A794A7CD28CE28CF2809F425C237
:1035500020E030E0A90169A17AA18BA19CA10E9481
:10356000833887FD22C0FAADFF2361F0A5019401E5
:1035700069A17AA18BA19CA10E94E53A69A37AA3D3
:103580008BA39CA320E030E040E85FE369A17AA12F
:103590008BA19CA10E94833887FF0FC019A21AA299
:1035A00020E82BA33FE33CA308C049E949A356E721
:1035B0005AA386E98BA39EE79CA3A501940160E032
:1035C00070E080E89FE30E948D386AAB7BAB8CABE8
:1035D0009DAB18A61FA2C12CD12C76011BA62DE2F3
:1035E000EDA1FEA12E9FC0012F9F900D11249C01E3
:1035F00023533E4F3AA729A7EDA5FEA580809180D1
:10360000A280B38020E030E0A901C501B4010E948E
:103610008338882309F479C02AA93BA94CA95DA95C
:10362000C501B4010E94E53A2B013C01EDA5FEA5C0
:1036300060837183828393839B01AC0160E070E0BF
:1036400080E89FE30E948D384B015C01E894B7F855
:103650002FA138A5275E394F38AB2FA7F901208954
:10366000318942895389C501B4010E94E53A1B01A1
:103670008C019B01AC0169A17AA18BA19CA10E9444
:10368000833887FD04C029A23AA20BA31CA3E9A595
:10369000FAA53080218002811381EFA5F8A920A12D
:1036A00031A142A153A1C501B4010E94E53A5B01D9
:1036B0004C019B01AC01632D722DC8010E9483381F
:1036C00087FD03C03A2C2B2C8401832D922DD80129
:1036D000E9A5FAA580839183A283B383FBA5F33088
:1036E000A1F0EFA1F8A5EF5FFE4F20893189428953
:1036F0005389C301B2010E94E53A9B01AC01C701A5
:10370000B6010E948D376B017C012BA52F5F2BA783
:103710004DA55EA54C5F5F4F5EA74DA78FA198A5F5
:10372000049698A78FA3409709F066CF80914B0429
:1037300099A998130FC08DE22DA13EA1829FF0019F
:10374000839FF00D1124E855FE4F158A168A178ABB
:10375000108E14C02FEE3FEF4FE75FE3C701B601B5
:103760000E94A53A18167CF48DE24DA15EA1849FBB
:10377000F001859FF00D1124E855FE4F158E168E31
:10378000178E10A26AC02FEE3FEF4FE75FEBC70125
:10379000B6010E94A53A181644F08FEEC82EDD241B
:1037A000DA948FE7E82E8FEBF82EA701960160E000
:1037B00070E080E89FE30E948D3720E030E040E039
:1037C0005FE30E94E53A0E94843B6B017C018DE23D
:1037D0002DA13EA1829FF001839FF00D1124E85599
:1037E000FE4F20915E0630915F0640916006509139
:1037F000610665A176A187A190A50E94E53AA7017F
:1038000096010E94E53A4B015C01A701960160E038
:1038100070E080E89FE30E948D379B01AC01C501F9
:10382000B4010E948D386B017C0120E030E0A901D9
:103830000E94833887FF03C0C12CD12C76018DE212
:103840004DA15EA1849FF001859FF00D1124E855E4
:10385000FE4FC58ED68EE78EF0A229A13AA14BA1CC
:103860005CA169A17AA18BA19CA10E94E53A7B0190
:103870008C018DE22DA13EA1829FF001839FF00D6E
:103880001124E855FE4FC701D80181A392A3A3A339
:10389000B4A3A58CB68CC78CD0A060902101709089
:1038A000220180902301909024019301A401B7018B
:1038B000C8010E94833887FD05C0762D672D982D9D
:1038C000892D04C07E2D6F2D902F812F272F362F0D
:1038D000492F582FB501C6010E94833887FD0DC0BE
:1038E0009301A401B701C8010E94833887FD03C07A
:1038F0005301640102C0570168018DE24DA15EA130
:10390000849FF001859FF00D1124E855FE4FC501FD
:10391000D601818F928FA38FB48F80E1FE01319603
:10392000A1E1B1E001900D928A95E1F7C701D801BC
:103930008093210190932201A0932301B09324014D
:1039400080E1FE017196A1E0B1E001900D928A95AF
:10395000E1F78091000180934C048F5F8F3009F470
:1039600080E080930001EA960FB6F894DEBF0FBEA8
:10397000CDBFDF91CF911F910F91FF90EF90DF901E
:10398000CF90BF90AF909F908F907F906F905F90FF
:103990004F903F902F900C94AB04EA960FB6F8949A
:1039A000DEBF0FBECDBFDF91CF911F910F91FF9072
:1039B000EF90DF90CF90BF90AF909F908F907F90CF
:1039C0006F905F904F903F902F90089584E2E1E0D8
:1039D000F1E0DF011D928A95E9F710924B041092F5
:1039E0004C0481E0809300011092A7010895AF92EA
:1039F000BF92CF92DF92EF92FF920F931F93CF93DC
:103A0000DF9300D000D0CDB7DEB75B0129E1E22E15
:103A100026E0F22E8C016B0180E1C80ED11CF5016D
:103A200061917191819191915F01F70121913191A2
:103A3000419151917F0129833A834B835C830E949A
:103A4000373929813A814B815C810E948D38F80198
:103A500061937193819391938F01AC14BD04F9F636
:103A60000F900F900F900F90DF91CF911F910F91BA
:103A7000FF90EF90DF90CF90BF90AF9008951F928E
:103A80000F920FB60F9211242F933F934F935F9392
:103A90006F937F938F939F93AF93BF93EF93FF9316
:103AA00086B18095877099F080FF03C00E9401065F
:103AB0000EC0982F947021F080911706826005C087
:103AC00081FF05C080911706886080931706FF91DB
:103AD000EF91BF91AF919F918F917F916F915F9186
:103AE0004F913F912F910F900FBE0F901F901895FF
:103AF000CF93DF93C0914F05D09150052097B9F037
:103B000081E080935205609168057091690580910C
:103B10006A0590916B059B01AC010E94E53A6D8BA3
:103B20007E8B8F8B988F1092500510924F05DF91EE
:103B3000CF9108952F923F924F925F926F927F9212
:103B40008F929F92AF92BF92CF92DF92EF92FF92AD
:103B50000F931F93CF93DF93CDB7DEB7C055D10935
:103B60000FB6F894DEBF0FBECDBF8091BA06807746
:103B700028968FAF2897882389F020E030E0A901AC
:103B8000609168057091690580916A0590916B0557
:103B90000E948338882311F40C9496262091E30424
:103BA00027962FAF279780915B0590915C05A09198
:103BB0005D05B0915E0522968CAF9DAFAEAFBFAFF5
:103BC00022979091630560969FAF6097A0917805CA
:103BD000AB83B0917905BC8300917A0510917B0588
:103BE000E0916805E88FF0916905F98F20916A05E9
:103BF0002A8F30916B053B8FE0906405F09065054E
:103C00006091660520916705809157059091580550
:103C1000A0915905B0915A0589A79AA7ABA7BCA74F
:103C20009091530523969FAF2397A0915405249616
:103C3000AFAF2497B09155052596BFAF2597E0917A
:103C400056052696EFAF269780915F059091600507
:103C5000A0916105B09162058AAF9BAFACAFBDAFDB
:103C60009091BE049FA7A0914C042A96AFAF2A97CB
:103C7000B091A7012996BFAF2997E0914B04EBA320
:103C800040914F05509150055B8B4A8B50915205E6
:103C90005C8F809151058CA3A091E404B091E50460
:103CA000BAA3A9A3B0917005BC8BE0917105ED8B0F
:103CB000F0917205FE8B309173053F8B40916C053E
:103CC0004D8F50916D055E8F80916E058F8F909115
:103CD0006F0598A3A0917405A983B0917505BA8367
:103CE00030907605209077058091BD044FA584170C
:103CF00009F475C7EA89FB89EF2B09F08FC22A9670
:103D0000FFAD2A973BA1F31781F0A32EB12C4DE212
:103D10004A9DC0014B9D900D1124DC01A855BE4F5A
:103D2000BB8BAA8BAB2B09F058C0C701A62FB22FB3
:103D30008093640590936505A0936605B09367052D
:103D40008C899D89AE89BF89809370059093710598
:103D5000A0937205B09373056096BFAD6097B09362
:103D60006305888D998DAA8DBB8D8093680590938E
:103D70006905A0936A05B0936B0589819A81A32D8B
:103D8000B22D8093740590937505A0937605B0933A
:103D900077058D8D9E8DAF8DB8A180936C05909326
:103DA0006D05A0936E05B0936F058B819C81D80142
:103DB0008093780590937905A0937A05B0937B055D
:103DC0002796EFAD2797E093E304FCA1F09351050C
:103DD0001092500510924F055BC7BC8DB111D1C038
:103DE000ECA1EF5FECA3E53009F41CA2F5E12CA1F6
:103DF000F29FC0011124AC014A515B4F5AA349A361
:103E00005DE25A9D90015B9D300D1124C9018855DA
:103E10009E4F4C01DC018C91E9A1FAA1808311969F
:103E20008D919D910D90BC91A02D23E0880F991F3D
:103E3000AA1FBB1F2A95D1F781839283A383B483E2
:103E4000F40185819681A781B08533E0880F991FA1
:103E5000AA1FBB1F3A95D1F7E9A1FAA185839683E2
:103E6000A783B087F40181859285A385B48543E05B
:103E7000880F991FAA1FBB1F4A95D1F7E9A1FAA184
:103E800081879287A387B487F40185859685A78566
:103E9000B08953E0880F991FAA1FBB1F5A95D1F70D
:103EA000E9A1FAA185879687A787B08BD40151969F
:103EB0006D917D918D919C9154976B017C01A3E054
:103EC000CC0CDD1CEE1CFF1CAA95D1F7C18AD28A4E
:103ED000E38AF48A0E94353923966FAF239724969C
:103EE0007FAF249725968FAF259726969FAF26976D
:103EF000D40199962D913D914D915C919C970E9492
:103F00008D3869A77AA78BA79CA79B01AC0160E0BD
:103F100070E080EA9FE30E948D3822966CAF7DAFFF
:103F20008EAF9FAF22972896BFAD2897BB23C1F0D5
:103F30002C893D894E895F896C897D898E899F890D
:103F40000E94E53AF401658B768B878B908FFC8914
:103F5000F88F2D89298F3E893A8F4F894B8F0DC05D
:103F6000D40155966D917D918D919C9158970E94A9
:103F7000843B688F798F8A8F9B8F1AAE1BAE1CAEE5
:103F80001DAEBDE2BA9D9001BB9D300D1124F9011B
:103F9000E855FE4F4F0125A136A147A150A52D831D
:103FA0003E834F83588760E070E080E09FE30E948B
:103FB0008D386B017C012896BFAD2897BB23C9F1D2
:103FC000F40141A452A463A474A485889688A788A8
:103FD000B08CA50194010E94E53A9B01AC01C3019C
:103FE000B2010E948D377B016C0120E030E0A90115
:103FF0000E94833887FF1AC12D813E814F815885E9
:10400000CA01B9010E948E37A30192010E94E53ACC
:104010009B01AC01C501B4010E948D370E94843B15
:104020006C8B7D8B8E8B9F8B1D873B862C861C8E8D
:104030002AC1D4019996BC91B983F401F2A5FA83FF
:10404000D4019B96BC91BB87F401F4A5FC87EBA13E
:10405000EF5FEF3009F4E0E02A962FAD2A97E217E0
:1040600089F03DE23E9FF0011124E855FE4F65893D
:1040700076898789908D0E94843B6C8B7D8B8E8B9B
:104080009F8B04C01C8A1D8A1E8A1F8A2C893D8929
:104090004E895F896C897D898E899F890E94E53A66
:1040A0002B013C014DE24A9D90014B9D300D1124A6
:1040B000C90188559E4F5C01DC0155962D913D91BB
:1040C0004D915C9158972E873F87488B598BA30160
:1040D00092016E857F85888999890E948D379B0121
:1040E000AC01C701B6010E94E53A9B01AC016981B0
:1040F0007A818B859C850E948E3720E030E040E0FD
:104100005FE30E94E53A362E272E89879A8720E0C2
:1041100030E0A9010E94A53A18160CF098C0298138
:104120003A814B855C85632D722D89859A850E9425
:10413000833887FF9EC0F50181A092A0A3A0B4A000
:10414000A3019201C501B4010E948D379B01AC010E
:10415000C701B6010E94E53A162F7C83082F9D8780
:10416000232D322D49855A850E94833887FF30C020
:10417000C501B4010E94843B6D8F7E8F8F8F98A301
:10418000A50194016E857F85888999890E9483386D
:10419000882309F47DC02E853F8548895989C5014A
:1041A000B4010E948D379B01AC01C701B6010E948A
:1041B000E53A9B01AC0169817A818B859C850E94DF
:1041C0008D371C8E1B8369837A838B879C8722C0E3
:1041D0002D813E814F815885CA01B9010E948E37D9
:1041E000232D322D49855A850E94E53AA30192017B
:1041F0000E948E370E94843B6D8F7E8F8F8F98A395
:104200001C8E3B822C820985FA85FD8739822A82A1
:104210000B87FC8760961FAE609740C01D873B866A
:104220002C86ED82F9866A872E873CC01D873B86E7
:104230002C86ED82F986CA86DE861C8E22E0609688
:104240002FAF60971C8A1D8A1E8A1F8A2BC01C8E66
:104250001D873C893D8F4D894E8F5E895F8F8F8989
:1042600088A360961FAE609719821A821B861C86EF
:1042700015C01C8E1D87988D9D8FA98DAE8FBA8D10
:10428000BF8FEB8DE8A3F2E06096FFAF609706C0AA
:104290001C8E1B8321E060962FAF60971D821986CC
:1042A0001A861E8627965FAD2797452F50E05EA79A
:1042B0004DA786E0849FF001859FF00D1124E15405
:1042C000FB4F9CA19283AA89BB899996BC91BCABF8
:1042D000EA89FB89F2A5FDABAA89BB899B96BC91B3
:1042E000BEABEA89FB89F4A52B96FFAF2B972296EC
:1042F0002CAD3DAD4EAD5FAD22976CA97DA98B2F46
:104300009F2F0E948D3768AB79AB8AAB9BAB20E0C7
:1043100030E0A9010E94833887FF04C018AA19AAB7
:104320001AAA1BAA1CA92DA961962FAF61973EA8B6
:104330002B962FAC2B978EE3C82E83ECD82E8EE2D3
:10434000E82E89E3F82E412C512C3201CDA2DEA2B9
:10435000EFA2F8A660969FAD6097992321F0913067
:1043600009F491C0CCC0AA89BB8995962D913D9145
:104370004D915C919897C701B6010E94E53A4B01B7
:104380005C0120E030E040E05FE30E94E53A9B0101
:10439000AC01688D798D8A8D9B8D0E948E379B0133
:1043A000AC01C701B6010E94E53A9B01AC01612F47
:1043B00061967FAD6197832D922D0E948D37162FC8
:1043C00061967FAF6197382E292E29813A814B85DE
:1043D0005C850E94833887FF49C029813A814B85DB
:1043E0005C856CA97DA98EA92B969FAD2B970E9409
:1043F0008D379B01AC010E948E376B017C012D8DA6
:104400003E8D4F8D58A1688D798D8A8D9B8D0E9430
:104410008E379B01AC01C701B6010E948D386B013C
:104420007C012B813C81402F5D8569817A818B8560
:104430009C850E948338811105C0B2E06096BFAFB1
:10444000609704C0E1E06096EFAF6097FD8DF88F54
:104450002E8D298F3F8D3A8F48A14B8F19815A811C
:1044600061965FAF61973B842C84E4C0A501940101
:10447000688D798D8A8D9B8D0E948E37688F798F9C
:104480008A8F9B8FD7C0A70196016D8D7E8D8F8DF2
:1044900098A10E94E53A9B01AC01612F61967FAD26
:1044A0006197832D922D0E948D374B015C012B81EA
:1044B0003C81402F5D850E94833887FFB5C02B81EA
:1044C0003C81402F5D85612F61967FAD6197832D83
:1044D000922D0E948D372D8D3E8D4F8D58A10E94BB
:1044E0008D386B017C011B818C8161968FAF619748
:1044F000302E2D8492E060969FAF60979BC0AA8972
:10450000BB8995962D913D914D915C919897C701EE
:10451000B6010E94E53A4B015C019B01AC01688D3C
:10452000798D8A8D9B8D0E94A53A18160CF050C08B
:1045300020E030E040E05FE3C501B4010E94E53ACD
:104540009B01AC01688D798D8A8D9B8D0E948D3782
:104550009B01AC01C701B6010E94E53A9B01AC0189
:10456000612F61967FAD6197832D922D0E948D37CB
:104570002C966FAF2C972D967FAF2D972E968FAFE1
:104580002E972F969FAF2F972D8139854A855E856F
:104590000E94A53A1816E4F4A5019401688D798D5E
:1045A0008A8D9B8D0E948D37688F798F8A8F9B8F24
:1045B0002C961FAD2C972D96BFAD2D976196BFAF52
:1045C00061972E963FAC2E972F962FAC2F9732C027
:1045D0002D8139854A855E85612F61967FAD619712
:1045E000832D922D0E948D379B01AC010E948E3746
:1045F0006B017C012C893D894E895F89688D798D9D
:104600008A8D9B8D0E948E379B01AC01C701B6013C
:104610000E948D386B017C011D81E9856196EFAFA9
:1046200061973A842E8406C0182D61969FAE6197DB
:104630003A2C2B2CA7019601C301B2010E948E37A0
:104640002B013C012DA13EA14FA158A50E9483380A
:1046500087FF07C0A30192016DA17EA18FA198A53C
:104660005EC028A939A94AA95BA9612F61967FADCF
:104670006197832D922D0E94A53A18160CF43FC025
:10468000212F61963FAD6197432D522D69A57AA5E3
:104690008BA59CA50E94E53A6DA378AB8CAB9DAB36
:1046A0000E946C386B017C0123966FAD2397249692
:1046B0007FAD249725968FAD259726969FAD26979B
:1046C0000E946C384B015C01A70196010E948D3756
:1046D0000E9406396EAB7FAB88AF99AF46E02DA53F
:1046E0003EA5429FF001439FF00D1124E154FB4F82
:1046F0008EA99FA991838083892B29F1A3C02EE3E2
:1047000033EC4EE259E36DA17EA18FA198A50E94E2
:104710008E376DA37EA38FA398A7A30192010E9459
:104720008D376B017C012D8139854A855E85612F2E
:1047300061967FAD6197832D922D0E94A53A181640
:104740000CF408CE9DCF2896BFAD2897BB2309F463
:1047500079C08D819985AA85BE85809364059093E3
:104760006505A0936605B09367058C899D89AE8920
:10477000BF898093700590937105A0937205B093E3
:1047800073056096EFAD6097E093630589819A8128
:10479000AB85BC858093740590937505A0937605D1
:1047A000B09377058D8D9E8DAF8DB8A180936C05EC
:1047B00090936D05A0936E05B0936F058B819C81DE
:1047C000A02FBD858093780590937905A0937A05F5
:1047D000B0937B052796FFAD2797F093E3042CA1B8
:1047E000209351054A895B895093500540934F05AA
:1047F00022968CAD9DADAEADBFAD229780935B058B
:1048000090935C05A0935D05B0935E0529A53AA53C
:104810004BA55CA520935705309358054093590547
:1048200050935A053FA53093BE044BA140934B04CF
:104830005C8D5093520589A19AA19093E5048093D1
:10484000E40460C12AAD3BAD4CAD5DADC301B20126
:104850000E948E372B013C012DA138A94CA95DA9DE
:10486000C501B4010E948D379B01AC01C301B201A7
:104870000E948D384B015C012DA138A94CA95DA97E
:10488000C701B6010E948D37A50194010E94E53A47
:104890006AAF7BAF8CAF9DAF20EC31EE44E65EE4B7
:1048A000C501B4010E94E53A0E946C380E940639A5
:1048B000603DB7E07B078105910560F446E02DA5DA
:1048C0003EA5429FF001439FF00D1124E154FB4FA0
:1048D000158253C0603A5FE075078105910560F469
:1048E00026E0ADA5BEA52A9FF0012B9FF00D112457
:1048F000E154FB4F31E011C060344FE17407810592
:10490000910568F426E0ADA5BEA52A9FF0012B9F76
:10491000F00D1124E154FB4F32E035830CC0A6E0CA
:104920004DA55EA5A49FF001A59FF00D1124E154B3
:10493000FB4FB3E0B58346E02DA53EA5429FF001B5
:10494000439FF00D1124E154FB4F2581022E04C03A
:1049500096958795779567950A94D2F7AEA9BFA9E2
:1049600002C0AA0FBB1F2A95E2F7B183A08361158D
:104970007105B1E08B07910568F446E02DA53EA5D1
:10498000429FF001439FF00D1124E154FB4F7483CB
:10499000638304C08FEF9FEF94838383BFA4B3949A
:1049A00096E0B91201C0B12C2D8139854A855E850A
:1049B000612F61967FAD6197832D922D0E94A53A5C
:1049C0001816ECF4812F61969FAD6197A32DB22D3F
:1049D000EA89FB8981A792A7A3A7B4A7FDA1239683
:1049E000FFAF239728A924962FAF24973CA925969B
:1049F0003FAF25974DA926964FAF2697E3C020E0FD
:104A000030E0A901612F61967FAD6197832D922DD2
:104A10000E94A53A18160CF0BEC08D819985AA8512
:104A2000BE858093640590936505A0936605B09359
:104A300067058C899D89AE89BF89809370059093A5
:104A40007105A0937205B093730560965FAD609792
:104A50005093630589819A81AB85BC8580937405E9
:104A600090937505A0937605B09377058D8D9E8DF7
:104A7000AF8DB8A180936C0590936D05A0936E05E2
:104A8000B0936F058B819C81A02FBD8580937805A5
:104A900090937905A0937A05B0937B058FA58093B9
:104AA000E3049CA190935105AA89BB89B09350055A
:104AB000A0934F0522962CAD3DAD4EAD5FAD229734
:104AC00020935B0530935C0540935D0550935E0534
:104AD00089A59AA5ABA5BCA58093570590935805C9
:104AE000A0935905B0935A05B092BE049BA1909330
:104AF0004B04AC8DA0935205E9A1FAA1F093E50413
:104B0000E093E404109268051092690510926A051A
:104B100010926B0510925F0510926005109261056E
:104B200010926205C0925305D0925405E09255054B
:104B3000F092560529A53AA54BA55CA5C701B6017B
:104B40000E948D38AA89BB8999966D937D938D9328
:104B50009C939C970E94781D80914B048093A701A1
:104B6000C05BDF4F0FB6F894DEBF0FBECDBFDF9145
:104B7000CF911F910F91FF90EF90DF90CF90BF905A
:104B8000AF909F908F907F906F905F904F903F90ED
:104B90002F900C94AB042A96BFAD2A97EBA1BE17B9
:104BA00079F08E2F8F5F8F3009F480E0FBA129967A
:104BB0002FAD2997F21303C029968FAF29978BA3A6
:104BC0001B8A1A8AED80F9846A852E853B842C84A1
:104BD0001D853FA527963FAF2797BFA685C8C7016C
:104BE000A62FB22F8093640590936505A093660568
:104BF000B09367058C899D89AE89BF8980937005C4
:104C000090937105A0937205B093730560965FADA4
:104C1000609750936305888D998DAA8DBB8D809385
:104C2000680590936905A0936A05B0936B05898127
:104C30009A81A32DB22D8093740590937505A0934E
:104C40007605B09377058D8D9E8DAF8DB8A180933D
:104C50006C0590936D05A0936E05B0936F058B81E5
:104C60009C81D8018093780590937905A0937A056B
:104C7000B0937B0527968FAD27978093E3049CA183
:104C800090935105AA89BB89B0935005A0934F0515
:104C900022962CAD3DAD4EAD5FAD229720935B05C6
:104CA00030935C0540935D0550935E0589A59AA5F8
:104CB000ABA5BCA58093570590935805A0935905C3
:104CC000B0935A0523968FAD239724969FAD2497D2
:104CD0002596AFAD25972696BFAD269780935305B1
:104CE00090935405A0935505B09356052AAD3BAD5E
:104CF0004CAD5DAD20935F05309360054093610539
:104D0000509362053FA53093BE044BA140934B04E2
:104D100029965FAD29975093A7018C8D80935205FA
:104D2000A9A1BAA1B093E504A093E404C05BDF4F4E
:104D30000FB6F894DEBF0FBECDBFDF91CF911F91AC
:104D40000F91FF90EF90DF90CF90BF90AF909F902A
:104D50008F907F906F905F904F903F902F9008952D
:104D600060915A0670E040E0E0915B06F0E080E080
:104D700090E030E0582FDB01082E02C0B595A795D2
:104D80000A94E2F7A0FF0EC0009731F0813031F0B5
:104D9000823031F021E005C024E003C028E001C0EA
:104DA00020E1422BDF0102C0B595A7955A95E2F7A5
:104DB000A0FF0EC0009731F0813031F0823031F029
:104DC00022E005C020E203C020E401C020E8322B2D
:104DD00001968430910571F64093900430938F04CE
:104DE00008951F920F920FB60F9211248F939F93E5
:104DF0008BB1909190049C71837E892B8BB985B186
:104E00009091900490718F7E892B85B915BC9F91EC
:104E10008F910F900FBE0F901F90189580916F008B
:104E20008D7F80936F0080918100887F8160809367
:104E300081001092910480915C068F3F21F4909143
:104E4000B806992349F09091BA06943029F090E081
:104E50000E94F60581E001C080E09091660692FF15
:104E600002C091E08927882311F0289A0895289894
:104E700008950E940E278BE2E1E5F5E0DF01982F0F
:104E80001D929A95E9F7E2E9F4E0DF011D928A9517
:104E9000E9F71092500510924F051092BD04109240
:104EA000E30481E08093BE04109291040E94B02636
:104EB0008BB1909190049C71837E892B8BB98BB1BF
:104EC00090918F04907E8F71892B8BB98091900483
:104ED00080FD2C9A80FF2C9885B120918F04B0E141
:104EE0002B9F9001112420728F7D822B85B908950C
:104EF0001F920F920FB60F9211240F931F932F93AF
:104F00003F934F935F936F937F938F939F93AF9351
:104F1000BF93EF93FF9380919104811193C29BB152
:104F20008091A504282F207E9F71922B9BB99BB165
:104F30003091A404232F2C71937E922B9BB925B121
:104F400000E1809FC00111248072922F9F7D892BE8
:104F500085B930FD2C9A30FF2C988091A30486BD32
:104F600082E085BD81E08093910478948091BB04B8
:104F70009091BC04892B09F0CBC08091BD04909125
:104F8000E304981709F4B9C0E091BD042E2F30E076
:104F900016E0E19FF0011124E154FB4FF093BC04B3
:104FA000E093BB048381948190938900809388006F
:104FB000808191819093B7048093B604E2818091BF
:104FC000B8048E17A1F1E093B80445E1E49FF00125
:104FD0001124EA51FB4FF093BA04E093B90481899C
:104FE0009289A389B489B695A7959795879580935B
:104FF0009E0490939F04A093A004B093A104809377
:105000009A0490939B04A0939C04B0939D04809376
:10501000960490939704A0939804B0939904809376
:10502000920490939304A0939404B0939504E09118
:10503000B904F091BA0490918F04808189278093FC
:10504000A50486E0829FD001839FB00D1124A15456
:10505000BB4F15968C914181528163817481082EDA
:1050600004C076956795579547950A94D2F7409373
:10507000A6045093A7046093A8047093A9044581E3
:10508000568167817085082E04C07695679557957F
:1050900047950A94D2F74093AA045093AB046093C7
:1050A000AC047093AD044185528563857485082EE8
:1050B00004C076956795579547950A94D2F7409323
:1050C000AE045093AF046093B0047093B10445856F
:1050D0005685678570898A019B0104C0369527959E
:1050E000179507958A95D2F70093B2041093B304ED
:1050F0002093B4043093B5040BC00E940E279FB7D1
:10510000F894809117068460809317069FBF9AC118
:10511000809118068130B1F486B180729091760644
:10512000891781F01092180680E1ECEBF6E0ACEC08
:10513000B6E001900D928A95E1F7809117068064A0
:10514000809317061092A4044091A6045091A704DE
:105150006091A8047091A9048091920490919304A5
:10516000A0919404B0919504840F951FA61FB71FBA
:105170008093920490939304A0939404B093950425
:10518000E091B904F091BA04418952896389748924
:10519000481759076A077B0768F524E02093A404A1
:1051A0004189528963897489841B950BA60BB70BBF
:1051B0008093920490939304A0939404B0939504E5
:1051C00020818091BC069091BD06A091BE06B09151
:1051D000BF0625FF04C00197A109B10903C00196CC
:1051E000A11DB11D8093BC069093BD06A093BE0681
:1051F000B093BF064091AA045091AB046091AC04F7
:105200007091AD048091960490919704A0919804B8
:10521000B0919904840F951FA61FB71F8093960421
:1052200090939704A0939804B0939904418952896C
:1052300063897489481759076A077B0778F52091B5
:10524000A40428602093A404418952896389748945
:10525000841B950BA60BB70B809396049093970431
:10526000A0939804B093990420818091C0069091F6
:10527000C106A091C206B091C30626FF04C00197E3
:10528000A109B10903C00196A11DB11D8093C006FB
:105290009093C106A093C206B093C3064091AE049A
:1052A0005091AF046091B0047091B10480919A0460
:1052B00090919B04A0919C04B0919D04840F951F34
:1052C000A61FB71F80939A0490939B04A0939C04FD
:1052D000B0939D044189528963897489481759079D
:1052E0006A077B0778F52091A40420612093A40429
:1052F0004189528963897489841B950BA60BB70B6E
:1053000080939A0490939B04A0939C04B0939D0473
:1053100020818091C4069091C506A091C606B091E7
:10532000C70627FF04C00197A109B10903C0019670
:10533000A11DB11D8093C4069093C506A093C60617
:10534000B093C7064091B2045091B3046091B40485
:105350007091B50480919E0490919F04A091A00447
:10536000B091A104840F951FA61FB71F80939E04C0
:1053700090939F04A093A004B093A1044189528903
:1053800063897489481759076A077B0778F5209164
:10539000A40421602093A4044189528963897489FB
:1053A000841B950BA60BB70B80939E0490939F04D0
:1053B000A093A004B093A10420818091C80690918D
:1053C000C906A091CA06B091CB0621FF04C001977F
:1053D000A109B10903C00196A11DB11D8093C806A2
:1053E0009093C906A093CA06B093CB068091BA06E3
:1053F000843039F49091DD068091A4048923809350
:10540000A4048091B6049091B70401979093B704D7
:105410008093B604892B69F41092BC041092BB04EB
:105420008091BD048F5F8093BD04863011F410928B
:10543000BD04909190048091A40489278093A404D2
:1054400010929104FF91EF91BF91AF919F918F9135
:105450007F916F915F914F913F912F911F910F918C
:105460000F900FBE0F901F9018958091660682FFD7
:1054700002C0289A01C028988091BA068C70A1F0C9
:1054800080918F048093A504809190048093A4045C
:1054900080915906880F845081958093A304809150
:1054A0006F00826080936F000895439A08956AE0C8
:1054B00080E090E00E94C1084DE550E069E176E0AF
:1054C00081E090E00C94E30821E1829FC001112467
:1054D00040E150E09E5F0C94E3081F93CF93DF936D
:1054E000182FEB0181E1189FB00111247E5F40E18C
:1054F00050E0CE010E947B08892B59F480E1FE0127
:1055000011928A95E9F7BE01812F0E94642A80E0FA
:1055100001C081E0DF91CF911F910895EF92FF923A
:105520000F931F93CF93DF93CDB7DEB760970FB67E
:10553000F894DEBF0FBECDBF182F80FFF6C08AE003
:10554000809359068FEF80935C0610925A0685E08F
:1055500080935B0683E080935D068AE097EDA3E28B
:10556000BCE380935E0690935F06A0936006B093C1
:1055700061068FE692E1A3E8BAE380936206909316
:105580006306A0936406B09365061092670680E0F8
:1055900090E0A8ECB1E48093680690936906A0932C
:1055A0006A06B0936B0680E090E0A8E4B3E48093D1
:1055B0006C0690936D06A0936E06B0936F0688EC10
:1055C00090E0909371068093700680E090E0A0E8F0
:1055D000BFE38093720690937306A0937406B09312
:1055E00075061092660685E595E5A5E8B2E4809318
:1055F000250690932606A0932706B093280680E000
:1056000090E0A8E4B4E48093190690931A06A0935E
:105610001B06B0931C0680931D0690931E06A09354
:105620001F06B09320068093210690932206A09334
:105630002306B093240680E090E0A0EFB4E48093CA
:10564000350690933606A0933706B093380680E06F
:1056500090E0A0E2B3E48093290690932A06A093F9
:105660002B06B0932C0680932D0690932E06A093C4
:105670002F06B09330068093310690933206A093A4
:105680003306B093340680E091ECA5E4BAE480934D
:10569000450690934606A0934706B093480680932C
:1056A000390690933A06A0933B06B0933C0680934C
:1056B0003D0690933E06A0933F06B093400680932C
:1056C000410690934206A0934306B093440680E0BF
:1056D00098ECAFEAB8EC8093550690935606A093E9
:1056E0005706B093580680E090E0A8E4B3EC8093AE
:1056F000490690934A06A0934B06B0934C0680E06F
:1057000090E0A8ECB2EC80934D0690934E06A093E7
:105710004F06B09350068093510690935206A09383
:105720005306B09354060E94572A11FF10C0CE01B1
:1057300001967C0180E1F70111928A95E9F700E07A
:10574000B701802F0E94642A0F5F0830C9F712FF4B
:105750000AC060E080E093E00E94C10860E081E55B
:1057600093E00E94C10813FF05C060E08EEA93E059
:105770000E94C10860960FB6F894DEBF0FBECDBF81
:10578000DF91CF911F910F91FF90EF9008951F929D
:105790000F920FB60F9211242F933F934F935F9365
:1057A0006F937F938F939F93AF93BF93EF93FF93E9
:1057B0008091C6008F33A9F050F4883109F181320D
:1057C00011F59FB7F89480911706886015C0803452
:1057D00071F08E37C1F49FB7F894809117068260FC
:1057E0000BC09FB7F89480911706816005C09FB7E2
:1057F000F894809117068062809317069FBF14C0AB
:105800000E94010611C0E091A60191E09E0F903820
:1058100009F490E02091A501921731F0F0E0EB5DE2
:10582000FE4F80839093A601FF91EF91BF91AF91BE
:105830009F918F917F916F915F914F913F912F91A8
:105840000F900FBE0F901F9018951F920F920FB6DA
:105850000F9211248F939F93EF93FF9380918E0467
:10586000E82FF0E0E25BFB4F90819093C6008F5FE2
:10587000803409F480E080938E0490914D04891364
:1058800005C08091C1008F7D8093C100FF91EF9191
:105890009F918F910F900FBE0F901F901895E091E0
:1058A0004D0491E09E0F903431F490E004C02091BB
:1058B000170624FD0FC020918E049217C1F3F0E06B
:1058C000E25BFB4F808390934D048091C100806226
:1058D0008093C1000895CF93C82F89EB98E00E9470
:1058E00076154C2F50E0FA013197E631F10580F53D
:1058F000E658FF4F0C946D3781EA98E002C08FE8BC
:1059000098E00E9476152BC08DE798E0FACF83E7E8
:1059100098E0F7CF82E698E0F4CF83E598E0F1CF06
:1059200082E398E0EECF89E298E0EBCF8EE198E059
:10593000E8CF8BE098E0E5CF8DEF97E0E2CF87EE00
:1059400097E0DFCF83ED97E0DCCF8FEB97E0D9CF07
:105950008DEA97E00E9476158C2F0E946A158AEADC
:1059600097E0CF910C947615DF92EF92FF920F9310
:105970001F93CF93DF9300D000D0CDB7DEB784EA7A
:1059800097E00E9476158CECE82E86E0F82E09E16F
:1059900016E0D12CF70161917191819191917F0174
:1059A000F80121913191419151918F0129833A83DD
:1059B0004B835C830E94373929813A814B815C811A
:1059C0000E948D380E945B15F3E0DF1621F082EA19
:1059D00097E00E947615D39484E0D812DBCF80EA5A
:1059E00097E00E9476158091DC060E946A158CE98A
:1059F00097E00F900F900F900F90DF91CF911F9134
:105A00000F91FF90EF90DF900C9476158F929F92FC
:105A1000AF92BF92CF92DF92EF92FF920F931F93BC
:105A2000CF93DF937C016B01DC01EC91F0E0E45853
:105A3000FA4F9081EF019D3221F42296918101E08D
:105A400007C09B3211F0219602C02296918100E09E
:105A5000912CF0E010E020E030E0A9015E01E0EDE3
:105A6000E90FEA30D0F4FF5FF93098F4911011504B
:105A7000A5E0B0E00E947337DC01CB01880F991FCD
:105A8000AA1FBB1F9C01AD012E0F311D411D511DD1
:105A90000AC0911008C01F5F06C0EE3F41F491108C
:105AA00006C0992493942196D5019C91D7CFFF23CA
:105AB00009F44FC0CA01B9010E9435394B015C019C
:105AC00020E030E0A9010E948338882349F11F3F7C
:105AD00064F42AE037ED43E25CE3C501B4010E94BF
